:100000000C9434000C9451000C9451000C94510049
:100010000C9451000C9451000C9451000C9451001C
:100020000C9451000C9451000C9451000C94B702A4
:100030000C9451000C9451000C9451000C945100FC
:100040000C9451000C9451000C94F0020C94260373
:100050000C9451000C9451000C9451000C945100DC
:100060000C9451000C94510011241FBECFEFD8E026
:10007000DEBFCDBF12E0A0E0B1E0ECEFF5E102C0E1
:1000800005900D92A236B107D9F713E0A2E6B2E0CF
:1000900001C01D92A538B107E1F70E9453000C94EE
:1000A000FC0A0C9400006F927F928F929F92AF9205
:1000B000BF92CF92DF92EF92FF920F931F93DF9345
:1000C000CF93CDB7DEB7AE970FB6F894DEBF0FBEB5
:1000D000CDBF259A789487E690E00E9452038FEF77
:1000E00097EAA1E681509040A040E1F700C00000EF
:1000F00080E091E00E94C3038CE091E00E94C30382
:1001000087E00E941E0184EF91E00E94C4010E94DA
:100110007702FFE07F2E8E010E5F1F4F6E01089465
:10012000C11CD11CE0E26E2E71E1E72EF12CEC0E29
:10013000FD1E66E1A62E61E0B62E59E9852E59E135
:10014000952E7982C801B6010E948C028823C9F3DA
:1001500085B1862585B9D80111968D919C9112970C
:10016000EDB7FEB73E970FB6F894FEBF0FBEEDBFDA
:100170003196ADB7BEB71296FC92EE921197B3824C
:10018000A2829C0144E0359527954A95E1F7358395
:100190002483982F9295907F80E0B4010E94FE07FF
:1001A00077836683D80113968D919C91149726E0EE
:1001B000969587952A95E1F7918780878C9182871C
:1001C000138617968C91848715860E945208EDB786
:1001D000FEB73E960FB6F894FEBF0FBEEDBF89E3A3
:1001E00091E00E94C303C7010E94C303AACFFC0190
:1001F0002FEF3FEF13C081912827022E2295207FF9
:100200002025032E322F22952F7002262695322785
:100210002327220F220F220F20256150662359F732
:10022000C9010895982FEAE4F1E080E02191921746
:1002300021F08F5F8031D1F780E0089580936302D1
:1002400008951F93CF93DF9390916402992329F02F
:10025000809177028F5F809377022091780280915E
:100260007902921759F0803510F42BE001C02DE18E
:10027000820F809379029093780203C08C5E809302
:10028000790220917902203A08F47AC080917A02AA
:1002900090917B029695879590937B0280937A024A
:1002A00030917702353028F0986090937B028093EC
:1002B0007A02205A20937902109277028091760276
:1002C000882309F44CC080917C028F5F80937C026C
:1002D0008C3008F455C0C0917A02D0917B029E0107
:1002E0002F73822F0E941201182F86E0D695C79592
:1002F0008A95E1F78C2F0E9412011295107F182B1E
:1003000080916602882371F410937D02812F8450BE
:100310008C3040F01092760280917E028F5F809345
:100320007E022EC080916602E82FF0E0E959FD4F71
:1003300010838F5F809366029091660280917D02A8
:10034000981750F01092760280917F028F5F809311
:100350007F0281E08093650210927C0211C080913F
:100360007A0290917B023BE08833930749F481E065
:100370008093760210927C021092660210926502BF
:10038000DF91CF911F910895BF92CF92DF92EF92AC
:10039000FF920F931F93DF93CF93CDB7DEB72E97C6
:1003A0000FB6F894DEBF0FBECDBFDE011196ECE3B1
:1003B000F1E02EE001900D922150E1F7009709F451
:1003C00086C0BC0180E090E00E94F5059B01AC0175
:1003D00060E070E080E89FE30E94F50420E030E0F8
:1003E00040E05EE30E94FB03E62ED72EC82EB92E16
:1003F0008E010D5F1F4FFF24F394F80161917191FD
:100400008F0180E090E00E94F5059B01AC0160E067
:1004100074E284E79BE40E94F5049B01AC0160E078
:1004200070E080E89FE30E94F5049B01AC016E2D13
:100430007D2D8C2D9B2D0E94F5040E94A3059B0110
:10044000AC01223031054105510540F02F3FFFEF4F
:100450003F07F0E04F07F0E05F0750F0F3948F2D77
:10046000873059F6223031054105510528F42FC057
:10047000EF2DE63061F108C02030F0E03F07F1E0F9
:100480004F07F0E05F0718F51092800088E0809336
:100490008100809181008F298093810030938900B1
:1004A0002093880080916F00826080936F002AB152
:1004B00081E090E00090630202C0880F991F0A94C7
:1004C000E2F7809528232AB99BB198239BB92E96F1
:1004D0000FB6F894DEBF0FBECDBFCF91DF911F9155
:1004E0000F91FF90EF90DF90CF90BF900895809193
:1004F0006202882329F481E08093620210927602DE
:100500000895109262020895809165028823E1F3B4
:100510000895809165020895EF92FF92CF93DF9343
:10052000FB01209165022223D9F02091660223501D
:100530003081231708F420834081C8E6D2E0BE0151
:1005400050E00E9449081092650260916602CE0157
:1005500001970E94F70021E030EF883B930709F0F4
:1005600020E0822FDF91CF91FF90EF9008951F92AE
:100570000F920FB60F9211242F933F934F935F93D7
:100580006F937F938F939F93AF93BF93EF93FF935B
:1005900080916202882399F089B190E00090630213
:1005A00002C0959587950A94E2F780FF04C081E028
:1005B0008093640202C0109264020E942101FF91A4
:1005C000EF91BF91AF919F918F917F916F915F91CB
:1005D0004F913F912F910F900FBE0F901F90189544
:1005E0001F920F920FB60F9211242F933F934F93A8
:1005F0005F938F939F93EF93FF935091C00040912F
:10060000C6008091810290E001968F7790702091D2
:10061000800230E08217930749F0252F28718093DC
:1006200081028C5F9C4FFC01408301C022E020933B
:100630008403FF91EF919F918F915F914F913F9133
:100640002F910F900FBE0F901F9018951F920F9231
:100650000FB60F9211248F939F93EF93FF93909176
:10066000820280918302981779F08091830290E052
:1006700001968F779070809383028C579D4FFC0179
:1006800080818093C60005C08091C1008F7D8093DA
:10069000C100FF91EF919F918F910F900FBE0F902E
:1006A0001F901895F8941092820210928302109273
:1006B000810210928002789497FF04C022E0209378
:1006C000C0009F779093C5008093C40088E9809311
:1006D000C10086E08093C2000895F8949091810251
:1006E00080918002981721F4789420E031E013C0C3
:1006F00078948091800290E001968F77907080933B
:1007000080028C5F9C4FFC01808190918403392F83
:1007100020E0280F311DC9010895F89490918102BD
:1007200080918002981721F4789420E031E010C085
:100730007894E0918002F0E03196EF77F070EC5F12
:10074000FC4F808190918403392F20E0280F311DC8
:10075000C90108952091820230E02F5F3F4F2F772B
:1007600030704091830250E024173507D1F3F9012E
:10077000EC57FD4F8083209382028091C1008062FC
:100780008093C1000895EF92FF92CF93DF93E82EFC
:10079000E7017E01F92EE70102C00E94AA038991B8
:1007A0008823D9F7DF91CF91FF90EF900895CF93F1
:1007B000DF93EC0102C00E94AA03FE0121968491FE
:1007C0008823C9F7DF91CF910895F8942091810291
:1007D00080918002789430E020583F4F281B3109E7
:1007E0002F773070C9010895F8948091800280932A
:1007F000810278940895A0E2B0E0E1E0F4E00C9486
:10080000120869837A838B839C832D833E834F8375
:100810005887CE010196BE01675F7F4F0E94950702
:10082000CE010596BE016F5E7F4F0E9495079985A8
:10083000923078F089898230C0F0943019F4823097
:1008400041F4CBC0843019F4923079F4C6C09230B0
:1008500051F481E02A859A89291709F480E08A8772
:10086000CE010996BCC0823051F481E02A859A8974
:10087000291709F480E08A8BCE014196B0C06D84BF
:100880007E848F849888ED88FE880F89188DE0E239
:10089000F0E080E090E0DC01AA24BB24650120E0C8
:1008A00030E0A901B3016170707061157105D1F07C
:1008B0002E0D3F1D401F511F15012601280E391E08
:1008C0004A1E5B1E81E090E0A0E0B0E02E153F05DF
:1008D0004007510718F080E090E0DC01820D931D85
:1008E000A41DB51DAA0CBB1CCC1CDD1C17FF09C028
:1008F00061E0262E312C412C512CA228B328C4288B
:10090000D528319749F0EE0CFF1C001F111F96945B
:10091000879477946794C6CF6B897C89EB85FC8537
:100920006E0F7F1F6E5F7F4F7C8F6B8F61E0EA855C
:100930007A89E71709F460E06A8F6B8D7C8D10C0AF
:10094000FC01E170F070309729F056954795379586
:1009500027955068B695A795979587956F5F7F4FB8
:10096000B7FDEECF0CC0880F991FAA1FBB1F57FD04
:100970008160220F331F441F551F6150704080302B
:10098000E0E09E07E0E0AE07E0E4BE0760F36B8FB7
:100990007C8F6FE7E62EF12C012D112DE822F92234
:1009A0000A231B2360E4E616F1040105110561F436
:1009B00087FD0AC0211531054105510529F0805CEC
:1009C0009F4FAF4FBF4F80788D8F9E8FAF8FB8A353
:1009D00083E0898FCE01499602C08AE591E00E94AA
:1009E000C706A096E2E10C942E08A8E1B0E0EBEF78
:1009F000F4E00C941A0869837A838B839C832D839B
:100A00003E834F8358878E01075F1F4FCE010196AB
:100A1000B8010E94950781E1E82EF12CEC0EFD1E35
:100A2000CE010596B7010E9495079985923008F48A
:100A300083C08989823008F47BC02A853A892327BC
:100A40002A87943011F0923021F4981709F06CC085
:100A500071C0843039F41D861E861F86188A1C8654
:100A60001B866AC0823019F484E0898765C08B8553
:100A70009C852B893C89821B930B9C878B872D85BA
:100A80003E854F855889ED88FE880F89188D2E1573
:100A90003F054007510738F4220F331F441F551FED
:100AA00001979C878B876FE170E0A12CB12CC12C42
:100AB000A0E4DA2E80E090E0DC012E153F0540072F
:100AC000510740F08A299B29AC29BD292E193F09DD
:100AD000400B510BD694C794B794A794220F331FA1
:100AE000441F551F6150704041F76FE7E62EF12C0F
:100AF000012D112DE822F9220A231B2360E4E616BA
:100B0000F1040105110561F487FD0AC021153105C5
:100B10004105510529F0805C9F4FAF4FBF4F807852
:100B20008D879E87AF87B88B8E01075F1F4F04C0EC
:100B3000870102C00AE511E0C8010E94C706689655
:100B4000EAE00C943608ACE0B0E0E9EAF5E00C9499
:100B5000220869837A838B839C83CE010196BE0130
:100B60006B5F7F4F0E9495078D81823081F18230CB
:100B700070F1843021F48E81882369F10AC02F81BD
:100B8000388537FD24C06E812F3131053CF0662356
:100B900011F120E030E040E050E821C08EE190E02B
:100BA000821B930B29853A854B855C8504C056953D
:100BB0004795379527958A95D2F7662381F050950A
:100BC0004095309521953F4F4F4F5F4F08C020E033
:100BD00030E0A90104C02FEF3FEF4FEF5FE7B9010D
:100BE000CA012C96E2E00C943E08A8E0B0E0EBEFDE
:100BF000F5E00C941C087B018C011A8261157105CB
:100C00008105910519F482E089835FC083E08983BF
:100C10008EE1C82ED12CDC82CB82ED82FE820F8346
:100C20001887C801B7010E946D06FC013197F7FFD4
:100C30003AC0AA27BB27AE1BBF0B21E030E040E043
:100C400050E00A2E04C0220F331F441F551F0A9480
:100C5000D2F721503040404050402E213F214023C8
:100C6000512361E070E080E090E0211531054105FD
:100C7000510519F460E070E0CB0104C016950795AA
:100C8000F794E794AA95D2F7E62AF72A082B192BAE
:100C9000ED82FE820F8318878EE190E08E1B9F0B02
:100CA0009C838B8312C0309781F00E2E04C0EE0C13
:100CB000FF1C001F111F0A94D2F7ED82FE820F83E2
:100CC0001887CE1ADF0ADC82CB82CE0101960E9401
:100CD000C7062896E8E00C943808AF92BF92CF92EE
:100CE000DF92EF92FF920F931F937B018C0180E0C4
:100CF000E81680E0F80681E0080780E0180758F45D
:100D0000EFEFEE16F1040105110509F090F480E013
:100D100090E0DC0117C0F0E0EF16F0E0FF06F0E035
:100D20000F07F1E01F0750F480E190E0A0E0B0E091
:100D300009C088E090E0A0E0B0E004C088E190E065
:100D4000A0E0B0E020E230E040E050E0281B390BAA
:100D50004A0B5B0B5701680104C0D694C794B79443
:100D6000A7948A95D2F7D601C5018E599E4FFC01F2
:100D70008081281B310941095109C9011F910F9137
:100D8000FF90EF90DF90CF90BF90AF900895EF92DB
:100D9000FF920F931F93CF93DF93FC012481358142
:100DA0004681578161818081823020F44061EFEF7C
:100DB000F0E0A3C0843009F49BC0823009F492C0F3
:100DC000211531054105510509F48FC00280F381D9
:100DD000E02D8FEFE238F8070CF05AC0C2E8DFEFE1
:100DE000CE1BDF0BCA31D1056CF579018A010C2EBF
:100DF00004C016950795F794E7940A94D2F781E01A
:100E000090E0A0E0B0E00C2E04C0880F991FAA1F4C
:100E1000BB1F0A94D2F70197A109B109822393233A
:100E2000A423B52321E030E040E050E00097A10585
:100E3000B10519F420E030E0A9012E293F29402B0B
:100E4000512B03C020E030E0A901DA01C9018F77FE
:100E50009070A070B07080349105A105B10539F48F
:100E600027FF09C0205C3F4F4F4F5F4F04C0215CFC
:100E70003F4F4F4F5F4FE1E0F0E0203080E0380718
:100E800080E0480780E4580728F5E0E0F0E022C061
:100E9000E038F1056CF5E158FF4FDA01C9018F77B1
:100EA0009070A070B07080349105A105B10539F43F
:100EB00027FF09C0205C3F4F4F4F5F4F04C0215CAC
:100EC0003F4F4F4F5F4F57FF05C05695479537959A
:100ED0002795319687E056954795379527958A95BA
:100EE000D1F70BC0E0E0F0E005C0E0E0F0E005C0C5
:100EF000EFEFF0E020E030E0A9018E2F8795882702
:100F00008795942F9F77679566276795E695E22EDC
:100F1000A92FA82BFE2FF62B622F732F8A2F9F2F1E
:100F2000CDB7DEB7E6E00C943A08DC01FB012C916A
:100F300011963C91119712968C911297482F4F77EA
:100F400050E0982F991F9927991F13966C9113972A
:100F5000862F880F892B90E0661F6627661F6183A6
:100F6000009739F5211531054105510511F482E04D
:100F700029C082E89FEF9383828367E0220F331FAB
:100F8000441F551F6A95D1F783E0808309C0220F63
:100F9000331F441F551F828193810197938382835E
:100FA000203080E0380780E0480780E4580778F375
:100FB00020C08F3F910579F4211531054105510578
:100FC00019F484E08083089544FF03C081E08083A6
:100FD00010C010820EC08F5790409383828383E0AD
:100FE000808387E0220F331F441F551F8A95D1F756
:100FF000506424833583468357830895AA1BBB1B03
:1010000051E107C0AA1FBB1FA617B70710F0A61B08
:10101000B70B881F991F5A95A9F780959095BC0129
:10102000CD0108952F923F924F925F926F927F92DF
:101030008F929F92AF92BF92CF92DF92EF92FF92E8
:101040000F931F93CF93DF93CDB7DEB7CA1BDB0B94
:101050000FB6F894DEBF0FBECDBF09942A88398839
:1010600048885F846E847D848C849B84AA84B98440
:10107000C884DF80EE80FD800C811B81AA81B9814C
:10108000CE0FD11D0FB6F894DEBF0FBECDBFED0160
:101090000895FB01DC0102C001900D9241505040C7
:1010A000D8F70895AEE0B0E0E8E5F8E00C94200849
:1010B0000D891E8986E08C831A8309838FEF9FE751
:1010C0009E838D839E01275E3F4FCE0101966F89DF
:1010D000788DA9010E947508EF81F885E00FF11F56
:1010E00010822E96E4E00C943C08ACE0B0E0EBE714
:1010F000F8E00C9412086C011B018A01FC011782B4
:101100001682838181FFD1C12E010894411C511C9C
:10111000F6019381F10193FD859193FF81911F0168
:10112000882309F4BEC1853239F493FD859193FF7C
:1011300081911F01853229F490E0B6010E94720A64
:10114000E7CFEE24FF2420E02032B0F48B3269F0A8
:101150008C3228F4803251F0833271F40BC08D321E
:1011600039F0803349F421602CC02260246029C00A
:10117000286027C0206125C027FD2CC0382F3053A0
:101180003A3098F426FF08C08E2D880FE82EEE0C1A
:10119000EE0CE80EE30E15C08F2D880FF82EFF0C15
:1011A000FF0CF80EF30E20620CC08E3221F426FDE7
:1011B00078C1206406C08C3611F4206802C08836DD
:1011C00049F4F10193FD859193FF81911F018823DB
:1011D00009F0BACF982F9554933018F0905293306D
:1011E00028F40C5F1F4FFFE3F9830DC0833631F005
:1011F000833771F0833509F060C022C0F801808127
:1012000089830E5F1F4F420171E0A72EB12C16C0DB
:1012100062E0662E712C600E711EF8018080918054
:1012200026FF03C06E2D70E002C06FEF7FEFC40198
:101230002C870E94670A5C0183012C852F7717C0D9
:1012400052E0652E712C600E711EF8018080918035
:1012500026FF03C06E2D70E002C06FEF7FEFC40168
:101260002C870E945C0A5C012C852068830123FD89
:1012700020C008C080E290E0B6012C870E94720A6C
:10128000FA942C858F2D90E0A816B90698F311C01A
:10129000F40127FD859127FF81914F0190E0B60170
:1012A0002C870E94720A2C85F110FA940894A108E8
:1012B000B108A114B10461F7F1C0843611F0893688
:1012C00049F527FF08C0F80160817181828193810F
:1012D0000C5F1F4F09C0F80160817181882777FD7D
:1012E0008095982F0E5F1F4F4FE6B42EB22297FFC6
:1012F00009C090958095709561957F4F8F4F9F4F56
:10130000F0E8BF2AA2012AE030E00E949E0A782E6F
:10131000741845C0853731F43FEEB32EB2222AE06F
:1013200030E025C099EFB92EB2228F36C1F0803758
:1013300020F4883509F0B5C00DC0803721F088371A
:1013400009F0AFC002C020E1B22AB4FE0BC084E0B5
:10135000B82A08C0B4FE09C0E6E0BE2A06C028E0EC
:1013600030E005C020E130E002C020E132E0B7FE0D
:1013700008C0F80160817181828193810C5F1F4FE9
:1013800007C0F8016081718180E090E00E5F1F4F1F
:10139000A2010E949E0A782E7418FFE7BF22B6FEB3
:1013A0000BC02EEFB2227E1438F4B4FE07C0B2FC9C
:1013B00005C08FEEB82202C0A72C01C0AE2C8B2D29
:1013C00090E0B4FE0DC0FE01E70DF11D2081203339
:1013D00019F4E9EEBE2209C0A394B2FE06C004C00F
:1013E00086789070009709F0A3948B2C9924B3FC15
:1013F00014C0B0FE0FC0AF1428F4E72CEF0CEA18AD
:10140000AF2C08C0E72C06C080E290E0B6010E9435
:10141000720AA394AF14C0F304C0AF1410F4FA1806
:1014200001C0FF2484FE0FC080E390E0B6010E945B
:10143000720A82FE1FC081FE03C088E590E010C0E2
:1014400088E790E00DC0C40186789070009791F015
:1014500081FC02C080E201C08BE2B7FC8DE290E02B
:10146000B6010E94720A06C080E390E0B6010E94B5
:10147000720AEA947E14C0F37A94F201E70DF11D2A
:10148000808190E0B6010E94720A7720A9F706C019
:1014900080E290E0B6010E94720AFA94FF20C1F740
:1014A00037CEF6012681378102C02FEF3FEFC90109
:1014B0002C96E2E10C942E08FC01059061507040DE
:1014C0000110D8F7809590958E0F9F1F0895FC010D
:1014D0006150704001900110D8F7809590958E0F63
:1014E0009F1F08950F931F93CF93DF938C01EB0100
:1014F0008B8181FF1BC082FF0DC02E813F818C81BB
:101500009D812817390764F4E881F9810193F983F3
:10151000E88306C0E885F985802F0995009731F4A6
:101520008E819F8101969F838E8302C00FEF1FEFF4
:10153000C801DF91CF911F910F910895FA01AA2759
:10154000283051F1203181F1E8946F936E7F6E5F06
:101550007F4F8F4F9F4FAF4FB1E03ED0B4E03CD0B4
:10156000670F781F891F9A1FA11D680F791F8A1F97
:10157000911DA11D6A0F711D811D911DA11D20D0FE
:1015800009F468943F912AE0269F11243019305DB8
:101590003193DEF6CF010895462F4770405D4193A9
:1015A000B3E00FD0C9F7F6CF462F4F70405D4A33F6
:1015B00018F0495D31FD4052419302D0A9F7EACFBE
:1015C000B4E0A6959795879577956795BA95C9F7ED
:1015D00000976105710508959B01AC010A2E0694E0
:1015E0005795479537952795BA95C9F7620F731F99
:0C15F000841F951FA01D0895F894FFCFE4
:1015FC007374617274656421210D0A0048656C6C0A
:10160C006F77210D0A00543A2534642E253031644D
:10161C00430D0A4144433A2534750D0A49443A2591
:10162C00640D0A42543A2564000D0A0000000100C2
:10163C000800400000010004050D0D0E13151619CD
:10164C001A1C232526292A2C323400000000000005
:10165C000000000102020303030304040404040455
:10166C000404050505050505050505050505050520
:10167C000505060606060606060606060606060600
:10168C0006060606060606060606060606060606EE
:10169C0006060707070707070707070707070707D0
:1016AC0007070707070707070707070707070707BE
:1016BC0007070707070707070707070707070707AE
:1016CC00070707070707070707070707070707079E
:1016DC000707080808080808080808080808080880
:1016EC00080808080808080808080808080808086E
:1016FC00080808080808080808080808080808085E
:10170C00080808080808080808080808080808084D
:10171C00080808080808080808080808080808083D
:10172C00080808080808080808080808080808082D
:10173C00080808080808080808080808080808081D
:10174C00080808080808080808080808080808080D
:02175C0008087B
:00000001FF
