:1000000011C029C028C027C026C025C0EFC023C00A
:1000100023C021C00D0E131516191A1C23252629DD
:100020002A2C323411241FBECFE9CDBF10E0A0E648
:10003000B0E0E0EEF3E002C005900D92A038B10709
:10004000D9F720E0A0E8B0E001C01D92A738B207C0
:10005000E1F773D1C3C1D4CF0F920FB60F921F92A5
:1000600011248F930FB6F894A89581B5886181BD4E
:1000700011BC0FBE8F911F900F900FBE0F9018955F
:100080008627082E8295807F8025092E982F8295BD
:100090008F700826869598278927880F880F880FE4
:1000A00080250895809182008111FCCF0895AF9240
:1000B000BF92CF92DF92EF92FF920F931F93CF9355
:1000C000DF938C01C62F80E0673008F06CC0EADF58
:1000D000D3E0DC0F6D2F8FEF9FEFD2DFE4E1F0E094
:1000E000E491E0936E00ED2FF0E0EC5EFF4FE491C1
:1000F000E0936F00780176E6C72E70E0D72E0C2FC4
:1001000010E05701A00EB11EB2E0CB0ED11CAE1410
:10011000BF0409F053C0CF5FCC0F80959095FC01D0
:1001200024E0F695E7952A95E1F7EF70FF27EC5E5E
:10013000FF4FE491D801AA0FBB1FA059BF4FEC930A
:10014000FC01EF70FF27EC5EFF4FE491000F111FE1
:10015000D801AF58BF4FEC93FC01EF2FFF27E2957A
:10016000EF70EC5EFF4FE491A2E0AC0FB0E0A2595B
:10017000BF4FEC93E92FFF27EF70FF27EC5EFF4F97
:10018000E491A3E0AC0FB0E0A259BF4FEC93C45F81
:10019000C093860010928500109284001092830014
:1001A00081E080938200DF91CF911F910F91FF90AA
:1001B000EF90DF90CF90BF90AF900895D7016D91F1
:1001C0007D015EDFD701EE91E295EF70F0E0EC5E2D
:1001D000FF4F2491F6012087EC91EF70F0E0EC5E88
:1001E000FF4FE491D6011996EC938ECF0F920FB684
:1001F0000F921F9211242F933F938F939F93EF930E
:10020000FF93809182008823D1F08091830091E058
:10021000980F90938300811112C0E0918500809126
:100220008600E817E8F0C098109282008091800064
:10023000909181000196909381008093800080913D
:100240008300883010F010928300FF91EF919F910E
:100250008F913F912F911F900F900FBE0F90189587
:10026000F0E0EA59FF4F808190E02091840031E076
:10027000320F30938400022E02C0959587950A9420
:10028000E2F780FF0DC0C09A809184008630B8F2FA
:1002900010928400809185008F5F80938500CFCF7E
:1002A000C098F2CFC498BC9880E8B49B10C0BC9AA8
:1002B00080EC8A95F1F7BC989AE19A95F1F700C025
:1002C00086B3807195EA9A95F1F700C00895815040
:1002D00011F000C0EACF82E0089598E03FB7F894AB
:1002E000BC9A00C080FDBC9825E02A95F1F700C0BB
:1002F00026B342E14A95F1F70000BC983FBF8695CE
:1003000024FD8068915051F70895CF93DF93CADFA1
:100310008CECE3DF84E4E1DFC5DF8CECDEDF8EEB29
:10032000DCDF8FEFDADFC82FD0E08FEFD6DF9E0162
:10033000382BC901DF91CF910895BB981FBC82E093
:100340008FBD13BE83BF85E286BF89B7846089BF36
:10035000B89AC098389A399A3D9A86B1836886B916
:100360007894D3DF9093620080936100369A369937
:10037000FECF84B195B19093640080936300C9E08F
:1003800066E080E690E093DE8DDE2FEB84ED91E079
:10039000215080409040E1F700C00000C15081F73B
:1003A0003798479A98E7F89414BE81B5816281BD69
:1003B00081B5806481BD81B581BD7894A89585B7EC
:1003C000877E806185BF85B7806285BF889585B748
:1003D0008F7D85BF915039F7379AC3CFF894FFCFFF
:1003E0004119004C004C2A2A2A2A2A2A382C0000BB
:1003F00000000000000000000000000000000000FD
:00000001FF
